:020000040800F2
:1000000030050020AD010008EF1A00081D19000896
:10001000ED1A00083D040008C71E0008000000009B
:10002000000000000000000000000000851B000828
:10003000F104000800000000111B0008871B0008E5
:10004000C7010008C7010008C7010008C701000870
:10005000C7010008C7010008C7010008C701000860
:10006000C7010008C7010008C7010008C701000850
:10007000C7010008C7010008C7010008C701000840
:10008000C7010008C7010008C70100080000000000
:10009000000000000000000000000000E106000871
:1000A000C7010008C7010008C7010008C701000810
:1000B000C7010008C7010008C7010008C701000800
:1000C000C7010008C7010008C7010008C7010008F0
:1000D000C7010008C7010008C701000800000000B0
:1000E000C7010008C7010008C701000800000000A0
:1000F000000000000000000000000000C701000830
:1001000000000000C7010008C7010008C70100087F
:1001100000000000000000000000000000000000DF
:1001200041040008C7010008C7010008C701000812
:10013000C7010008000000000000000000000000EF
:10014000000000000000000000000000C7010008DF
:10015000C7010008C7010008C7010008C70100085F
:10016000C7010008C70100080000000000000000EF
:10017000000000000000000000000000000000007F
:1001800000000000C701000800000000000000009F
:10019000C7010008C7010008DFF80CD000F068F8BC
:1001A00000480047011F000830050020064880472E
:1001B00006480047FEE7FEE7FEE7FEE7FEE7FEE74C
:1001C000FEE7FEE7FEE7FEE71D1C000899010008B8
:1001D0002DE9F05F0546002092469B46884606467C
:1001E000814640241BE0284641464746224600F00F
:1001F0002FF853465A46C01A914110D3114618465B
:10020000224600F016F82D1A67EB01084F462246E9
:100210000120002100F00DF817EB00094E41201ECF
:10022000A4F10104DFDC484631462A464346BDE8D6
:10023000F09F202A04DB203A00FA02F100207047E8
:100240009140C2F1200320FA03F319439040704714
:10025000202A04DB203A21FA02F00021704721FA1B
:1002600002F3D040C2F12002914008431946704782
:10027000064C074D06E0E06840F0010394E80700F3
:1002800098471034AC42F6D3FFF78AFFCC1F000822
:10029000EC1F000810B50146806B026C12F0500F85
:1002A00005D0806BC26CBDE8104008461047016C59
:1002B00041F40071016401688A6812F0405F17D14F
:1002C0008269AAB9CA6A12F4700F02D08A6852050C
:1002D0000ED44A6822F020024A60016C21F4807139
:1002E0000164016CC90403D4016C41F00101016493
:1002F00000F0A4FA10BD10B5806B40210164416C80
:1003000041F00401416400F0C2FA10BD10B5806BE9
:1003100000F0BCFA10BD0000454910B54A6822F44F
:1003200040324A604A6843681A434A6001684A6832
:1003300022F480724A6001684A68036942EA032233
:100340004A6001684A6822F040724A6001684A685F
:1003500083681A434A6001688A6822F400628A60EE
:1003600001688A68C3681A438A60816A6FF07062A4
:10037000D14201688A6822F070628A6001688A68E6
:100380000CD0836A1A438A6001688A6822F040525E
:100390008A6001688A68C36A1A4301E022F0405209
:1003A0008A6001688A6822F002028A6001688A68AD
:1003B000836942EA43028A60016A002901684A6847
:1003C0000FD042F400624A6001684A6822F4604239
:1003D0004A6001684A68174C436A04EB43331A4386
:1003E00001E022F400624A600168CA6A22F47002E5
:1003F000CA620168CA6A838B0F4C04EB03531A4329
:10040000CA6201688A6822F400728A6001688A6898
:10041000036B42EA43228A6001688A6822F48062A0
:100420008A6001688A68406942EA8020886010BD5D
:100430000023014000E0FFFF0000F0FFFEE70000A6
:10044000014800F01DBB0000CC000020016818230B
:10045000CAB2103AB2FBF3F2054B6FF30901032A5B
:100460009B5CC36500D9091D816508467047000083
:10047000B41F000810B5014600208B698A6A4FF04E
:10048000C07453B1B3F5005F15D072B1012A0CD01E
:10049000022A0AD0032A09D104E01AB1012A06D09F
:1004A000022A03D1C96AC90100D5012010BDC96A59
:1004B000A142FAD010BD002AF7D0012AF2D0022AB8
:1004C000F3D0032AF3D010BD30B50468256825F4B5
:1004D00080252560046863608368402B036803D02F
:1004E00099600068C26030BD9A600068C16030BD2C
:1004F000704700000A21B0FBF1F201FB120010B5B9
:100500007549764C0A28886122D2DFE800F0051B85
:10051000465C0577888FAFC500220121204600F098
:10052000F7FC00220221204600F0F2FC0022042108
:10053000204600F0EDFC00220821204600F0E8FCF7
:10054000002288E0012272E04021204600F0E0FC19
:1005500001221146204600F0DBFC01220221204648
:1005600000F0D6FC01220421204600F0D1FC01223B
:100570000821204600F0CCFC01221021204600F08A
:10058000C7FC01222021204600F0C2FC20460122A7
:10059000BDE81040402100F0BBBC002201212046F4
:1005A00000F0B6FC00220221204600F0B1FC01223E
:1005B0000421204600F0ACFC00220821204600F077
:1005C000A7FC002214E000220121204600F0A0FC3C
:1005D00000220221204600F09BFC0022042120463C
:1005E00000F096FC00220821204600F091FC012238
:1005F0001021204600F08CFC012267E0002201213E
:10060000204600F085FC01220221204600F080FCFB
:1006100000220421204600F07BFC00224CE0002256
:100620000121204600F074FC012225E00022012176
:10063000204600F06DFC00220221204600F068FCFC
:1006400000220421204600F063FC012208212046FC
:1006500000F05EFC01221021204600F059FC01222E
:100660002021204600F054FC01226DE700220121E8
:10067000204600F04DFC00220221204600F048FCFC
:1006800000220421204600F043FC002208212046DD
:1006900000F03EFC002214E000220121204600F080
:1006A00037FC00220221204600F032FC0022042107
:1006B000204600F02DFC01220821204600F028FCF5
:1006C00001221021204600F023FC00222021204698
:1006D00000F01EFC002237E700000020001002405E
:1006E000402000F045BB000078B50024009490F84D
:1006F0003C20012A19D0012280F83C200A680723F7
:100700000568092A13D9EE680A3A02EB42029340BF
:100710009E43EE600A788B680A3A02EB42029340ED
:100720000268D5682B43D36010E0022078BD2E69A3
:1007300002EB420293409E432E610A788B6802EBE3
:1007400042029340026815692B4313614A681F23D4
:10075000072A13D205686E6B521E02EB8202934089
:100760009E436E630B790A885B1E92B203EB830390
:100770009A4003685D6B2A435A6327E005680D2A97
:1007800012D22E6BD21F02EB820293409E432E6345
:100790000B790A88DB1F92B203EB83039A4003684C
:1007A0001D6B2A431A6311E0EE6A0D3A02EB8202D6
:1007B00093409E43EE620B790A880D3B92B203EBA5
:1007C00083039A400368DD6A2A43DA62174B05689F
:1007D000154A9D4206D10D68122D03D1556845F486
:1007E0008005556005689D4219D1114D0B68AB42DB
:1007F00001D0112B13D1536843F4000353600968EF
:10080000A9420CD10B490C4A0968B1FBF2F101EB8A
:100810008101490000E0491E00910029FBD180F8C8
:100820003C40002078BD0000002301400020014032
:10083000120000103400002040420F00114810B593
:100840000168114A91604168D16081681161C06896
:10085000506151696420B1FBF0F1B1FBF0F300FB92
:10086000131050601069C82801D2002000E0012058
:1008700001F03AFB5068FFF73DFEBDE8104001F083
:1008800049B90000BC0000200000002070477047FC
:1008900070B504004FF0000503D0206C002610B1A5
:1008A00007E0012070BD666484F83C60204600F0DB
:1008B00019F8206CC00610D4206C20F4885040F049
:1008C000020020642046FFF727FD6664206C20F0BC
:1008D000020040F00100206400E0012584F83C6043
:1008E000284670BD70B506460068194986B0884232
:1008F0002CD118480025016841F48071016000681E
:10090000694600F480700590172000900320CDE91F
:100910000105114800F038FA114C1048C4E90005EF
:100920000015A560C4E90350800060618000A061EB
:100930008011C4E907052046656200F071F918B11D
:10094000792108A001F0C0FAB463A66306B070BDB7
:100950000020014044380240000002401064024080
:10096000CC0000202E2E2F5372632F73746D333200
:10097000663478785F68616C5F6D73702E63000019
:10098000F8B50E4600210446009190F83C0001287D
:1009900007D0012084F83C0020688368DB0702D080
:1009A00011E00220F8BD836843F0010383602D4805
:1009B0002D4B0068B0FBF3F000EB400000E0401E60
:1009C00000900028FBD120688368DB0748D0236CA7
:1009D00040F20165AB4343F48073236440684005F3
:1009E00005D5206C20F4005040F480502064206C29
:1009F000C00404D5606C20F00600606400E061640F
:100A000084F83C10A16B1A48184DC863A16B1948B3
:100A10000864A16B1848C86421686FF02200086060
:100A20002068416841F0806141602068816841F43C
:100A3000807181602168134632464C31A06B00F012
:100A400059F96868C006206802D00C49884207D16D
:100A5000816811F0405F03D1816841F0804181607D
:100A60000020F8BD3400002040420F000023014068
:100A7000950200080D030008F7020008002001405D
:100A80002DE9F84304464FF00009CDF80090634883
:100A90004FF41651A56D0068B0FBF1F72E6894F87D
:100AA0005C10082000FA01F131420FD021680A6879
:100AB00052070BD50A6822F004020A6094F85C1011
:100AC0008840A860606D40F00100606594F85C109B
:100AD0004FF0010808FA01F0304208D02168496956
:100AE000090604D5A860606D40F00200606594F8C6
:100AF0005C1004208840304208D0216809688907CA
:100B000004D5A860606D40F00400606594F85C1046
:100B100010208840304218D021680968090714D590
:100B2000A86020680168490304D50068000308D55F
:100B3000A16C07E00168C90503D4016821F0080130
:100B40000160216C09B12046884794F85C10202090
:100B50008840304231D021680968C9062DD5A86087
:100B600094F8350005282068016806D0490347D568
:100B7000006800031DD4616C1CE021F016010160C7
:100B80002068416921F080014161206C08B9A06CA6
:100B900020B12068016821F00801016094F85C1020
:100BA0003F208840A86084F8349084F83580216D17
:100BB0001FE0E16B09B120468847606D00282BD00B
:100BC000606DC00714D0052084F8350020680168E6
:100BD00021F0010101600098401C0090B84203D848
:100BE00020680068C007F6D184F8349084F8358016
:100BF000E16C002910D001B02046BDE8F043084761
:100C00000168C905D5D4016821F01001016084F89C
:100C1000349084F83580CCE7BDE8F88334000020B8
:100C20002DE9F041044600F079F906465CB1002553
:100C300084F83450022084F835002068016821F0DF
:100C4000010101600DE00120BDE8F08100F066F9CE
:100C5000801B052805D920206065032084F8350015
:100C6000F2E720680068C007F0D1226811682048C8
:100C70000140D4E901031843D4E903363343184350
:100C800063691843A3691843E3691843236A184347
:100C90000843616A042903D1D4E90B1319430843BB
:100CA000106020684069666A20F0070130460E43F4
:100CB000012704280CD1A06A0643E06A40B120460F
:100CC000FFF7D8FB20B14020606584F83570BAE7A3
:100CD000206846612046FFF7B9FB94F85C203F216D
:100CE00091408160656584F835700020ACE70000B4
:100CF0003F8010F02DE9F0410446866D90F83400F5
:100D0000002501280DD0012084F8340094F83570B6
:100D10000020012F07D084F8340002252846BDE8C2
:100D2000F0810220FBE7022784F8357060652046D9
:100D3000FFF7CAFB94F85C103F208840B060206841
:100D4000016841F0160101602068416941F08001AD
:100D50004161206C20B12068016841F00801016008
:100D60002068016841F001010160D7E77047000089
:100D7000044910B50A68024202D00860FFF7F6FF86
:100D800010BD0000143C01402DE9F84FDFF860B1C0
:100D900000224FF001084FF0030A4FF00F090BF14A
:100DA000040E00BF0B6808FA02F42340A3426ED180
:100DB0004D68022D01D0122D0ED1D50800EB850C07
:100DC000DCF820505607F70E09FA07F6B5430E690E
:100DD000BE402E43CCF82060066855000F790AFA11
:100DE00005FC07F0030726EA0C06AF40374307600F
:100DF0004E68012E05D0022E03D0112E01D0122EE6
:100E00000ED18668CF6826EA0C06AF40374387606C
:100E10004668A6430C79C4F30014944034434460FC
:100E2000C6688C6826EA0C06AC403443C4604C6843
:100E3000E40056D52F4C256845F48045256024688C
:100E400022F0030504F4804400942B4C2E19D6F8AC
:100E5000084895072F0F09FA07F5AC43274DA8421C
:100E600001D1002515E0264DA84201D1012510E051
:100E7000244DA84201D102250BE0234DA84201D107
:100E8000032506E0214DA84202D1042501E028E017
:100E90000725BD402543C6F80858DBF800405D46ED
:100EA0004E689C43F60300D51C432C60DEF80040DE
:100EB00075464E689C43B60300D51C432C600C4D10
:100EC00008352C684E689C43F60200D51C432C6004
:100ED000074D0C352C684E689C43B60200D51C4368
:100EE0002C60521C102AFFF45DAFBDE8F88F0000A3
:100EF000003C014044380240003001400000024004
:100F00000004024000080240000C024000100240B1
:100F10000AB1816170470904FBE70000014880685D
:100F200070470000280000200248816802781144C0
:100F300081607047280000200B4810B5016841F41B
:100F400000710160016841F480610160016841F451
:100F500080710160032000F097F8002000F006F88F
:100F600000F024F8002010BD003C024070B50D4D8B
:100F700004464FF47A712878B1FBF0F00A49096809
:100F8000B1FBF0F000F0FDFA48B9102C07D20022B6
:100F90002146501E00F058F800206C6070BD012002
:100FA00070BD000028000020340000201F4808B554
:100FB000016841F480410160006800F480400090C5
:100FC0001A48001F016841F080510160006800F07C
:100FD00080500090032000F057F8002211466FF077
:100FE0000B0000F031F8002211466FF00A0000F00B
:100FF0002BF8002211466FF0090000F025F80022BE
:101000001146501F00F020F800221146101F00F07A
:101010001BF800221146901E00F016F80022BDE8D1
:1010200008401146501E00F00FB80000443802403E
:1010300000F01F02012191404009800000F1E020F2
:10104000C0F8001170470000F0B40E4B1B680C464E
:10105000C3F30223C3F10705042D00D90425191D8C
:10106000072901D2002300E0DB1E012606FA05F164
:10107000491E214099409E40761E16403143F0BCE7
:1010800000F036BD0CED00E0064900F007020868EC
:101090004FF6FF03184040EA0220034A104308605D
:1010A000704700000CED00E00000FA052DE9F04764
:1010B0000E46050065D0DFF81481D8F80000F7B2BD
:1010C00000F00F00B04207D288F80070D8F8000096
:1010D00000F00F00B04254D128683D4C810712D572
:1010E000400703D5206840F4E050206028780007CE
:1010F00003D5206840F4604020602068A96820F093
:10110000F000084320602878C0072DD03049686877
:101110000839012812D0022813D0032811D00968F9
:10112000890700292DDA216821F00301014321609C
:10113000FFF7F4FE814641F2883A0EE00968890320
:10114000EFE709688901ECE7FFF7E8FEA0EB09018A
:10115000514502D90320BDE8F0872068696800F096
:101160000C00B0EB810FEFD1D8F80010404601F031
:101170000F01B14207D90770006800F00F00B042BC
:1011800001D00120E7E72878400705D52068E96805
:1011900020F4E050084320602878000706D5206836
:1011A000296920F4604040EAC100206000F01CF88A
:1011B0002168084AC1F30311515CC8400649086020
:1011C0000020FFF7D3FE0020C5E70000003C0240EE
:1011D00008380240BC1F00083400002001480068A5
:1011E0007047000034000020154810B5006810F06A
:1011F0000C02144813D01449042A0FD0082A0ED127
:101200000F4C241F2268236802F03F025B0207D5BF
:101210002068C0F38810A0FB010106E0084610BD5D
:101220002168C1F38811A1FB00010023FEF7D0FF64
:101230002168C1F30141491C4900B0FBF1F010BD28
:10124000083802400024F40040787D012DE9F84F71
:10125000050076D02878DFF8F8B2BE4CC00749D038
:10126000DBF800105846C1F38101012908D000685D
:10127000C0F3810002280AD1201D0068400206D573
:101280002068800336D568680028E2D032E06868BC
:10129000B0F5803F10D0B0F5A02F206810D020F41A
:1012A00080302060206820F4802020606868A0B131
:1012B000FFF734FE06460CE0206840F48030F4E787
:1012C00040F480202060F7E7FFF728FE801B6428A9
:1012D00073D820688003F7D50CE0FFF71FFE0646A1
:1012E00005E000BFFFF71AFE801B6428F0D82068D5
:1012F0008003F7D42878DFF8608280074FF0000978
:101300003ED5DBF80010584611F00C0F09D00068EC
:10131000C0F3810002280BD18D48001F00684002F5
:1013200006D42068800715D5E868012809D111E0A6
:10133000E868B8B10120C8F80000FFF7EFFD0646E5
:1013400005E002E1FFF7EAFD801B0228C0D8206813
:101350008007F7D52068296920F0F80040EAC1002D
:1013600020600DE0C8F80090FFF7D8FD064604E0C5
:10137000FFF7D4FD801B02281FD820688007F7D410
:101380002878000722D5724E744869696C3671B1AD
:1013900001210160FFF7C2FD074604E0FFF7BEFD33
:1013A000C01B022809D830688007F7D50EE0C0F8C6
:1013B0000090FFF7B3FD074605E083E0FFF7AEFDC1
:1013C000C01B02287ED830688007F7D428784007F1
:1013D00068D5DFF87CA100270AF1380ADAF80000A6
:1013E000C0000BD4DAF8001041F08051CAF80010A8
:1013F000DAF80000012700F080500090584E306865
:10140000C00510D4306840F480703060FFF786FD6E
:10141000009005E0FFF782FD0099401A022851D89C
:101420003068C005F6D54A4EA868683601280FD046
:101430000528306810D020F001003060306820F0BE
:1014400004003060A868B8B1FFF768FD00900FE0B5
:10145000306840F00100F4E740F004003060F7E746
:10146000FFF75CFD0099411A41F28830814264D84F
:1014700030688007F4D50EE0FFF750FD009007E0DC
:10148000FFF74CFD0099411A41F28830814254D84F
:1014900030688007F4D42FB1DAF8001021F08051C1
:1014A000CAF80010A869C0B3DBF80010C1F38101CD
:1014B00002294AD00228484607D0C8F86000FFF742
:1014C0002DFD00E039E005463AE04746C8F86000E7
:1014D000FFF724FD064604E0FFF720FD801B0228ED
:1014E0002BD820688001F7D4D5E907010843A96A01
:1014F0001C4A490802EB01416A6A41EA8211084329
:1015000095F82C1040EA01611148001F016001208C
:101510003866FFF703FD054605E014E0FFF7FEFC23
:10152000401B022809D820688001F7D50BE000BFD6
:10153000FFF7F4FC401B022802D90320BDE8F88F16
:1015400020688001F4D40020F8E70120F6E70000CD
:10155000083802400038024000004742800E4742EF
:10156000007000400000FFFF4FF0E02104280869F0
:1015700003D020F004000861704740F00400FAE74F
:10158000704710B5401EB0F1807F01D3012010BD1F
:101590004FF0E02460610F21601700F0A9FA0020ED
:1015A000A06107202061002010BD10B5FFF7E8FF03
:1015B00010BD10B590F83820012A25D0012280F8FE
:1015C0003820CA688C6822F4407222434C6822F4A6
:1015D000806222430C6822F4006222430C6922F4E8
:1015E000805222434C6922F4005222438C6922F437
:1015F0008042224322F400410268002321435164C7
:1016000080F83830002010BD022010BD30B590F8B1
:101610003820012A20D0012280F83820022380F8C7
:10162000393003685C6824F070045C6003685C68AF
:101630000D682C435C6003689C6824F080049C6007
:1016400003689C6849680C439C6080F8392000213D
:1016500080F83810084630BD022030BD10B50400B7
:1016600003D094F8390010B107E0012010BD00202C
:1016700084F83800204600F00DF8022084F8390084
:10168000211D206800F0F4FA012084F839000020C0
:1016900010BD000008B500680649884208D1064818
:1016A000016841F001010160006800F00100009054
:1016B00008BD0000000001404438024070B50446F7
:1016C00090F83800012817D0012584F838500220FE
:1016D00084F839002068826822F0770222F47F4281
:1016E00082600868502837D00DDC202859D005DCEE
:1016F00088B3102841D151E0022070BD302853D06A
:1017000040283AD13FE060282ED070280BD0B0F5A9
:10171000805F03D0B0F5005F2FD110E020688168B2
:1017200021F0070115E0CB68D1E90121206800F024
:10173000F2FA2168886840F0770088601DE0CB6885
:10174000D1E90121206800F0E6FA2068816841F4BF
:101750008041816011E01EE0CA684968206800F09D
:101760008FFB5021206806E0CA684968206800F0B5
:1017700098FB6021206800F0D8FA84F839500020E6
:1017800084F8380070BDCA684968206800F078FBAA
:1017900040212068EFE700212068ECE71021206855
:1017A000E9E720212068E6E730212068E3E7000030
:1017B00000B50068094985B088420DD14FF4D44086
:1017C00000900220019000200290039001200490DC
:1017D00069460348FFF7D8FA05B000BD0000014094
:1017E0000010024070B5044690F838000D460128FC
:1017F0000DD0012684F83860022084F8390042B107
:10180000042A18D0082A2AD00C2A4DD139E0022007
:1018100070BD206800F092FA2068816941F00801EB
:1018200081612068816921F00401816120688169FA
:101830002A69114311E0206800F0A8FA2068816944
:1018400041F4006181612068816921F480618161D6
:10185000206881692A6941EA0221816124E02068C7
:1018600000F0C0FA2068C16941F00801C161206838
:10187000C16921F00401C1612068C1692A6911436D
:1018800011E0206800F0DAFA2068C16941F40061D3
:10189000C1612068C16921F48061C1612068C169AA
:1018A0002A6941EA0221C16184F83960002084F884
:1018B000380070BD10B5040003D094F8390010B1A1
:1018C00007E0012010BD002084F83800204600F019
:1018D0000CF8022084F83900211D206800F0C8F9B6
:1018E000012084F83900002010BD704710B504466F
:1018F0000068012200F004FA07492068884203D1F9
:10190000416C41F4004141642068016841F00101EB
:101910000160002010BD000000000140FEE7000053
:101920007FB51E481C490025C0E9001585600124CB
:1019300005621B490461C0E90A150426C560C0E9B7
:10194000064604634461FEF7A3FF00B1FEE7CDE95C
:101950000054694611480295FEF7C6FE00B1FEE745
:101960000094022469460D480194FEF7BDFE00B1C3
:10197000FEE70320CDE9004069460848FEF7B4FEC3
:1019800000B1FEE70096694604480196FEF7ACFEFA
:10199000002800D0FEE77FBD002001403800002075
:1019A0000100000F30B51B4887B00024016841F0EA
:1019B00010010160016801F010010591016841F01A
:1019C000010101600068144D00F0010005902246FD
:1019D0007F212846FFF79CFA7F2000900120CDE967
:1019E0000104694628460394FFF7CEF94020009091
:1019F0000A48CDE9010469460948FFF7C5F9002204
:101A000011461720FFF720FB1720FFF711FB07B047
:101A100030BD0000303802400010024000001110BC
:101A20000000024010B5304894B02E4901601021EA
:101A30000024C0E901146421C0E903144461FFF7E4
:101A40000DFE00B1FEE74FF480500E900EA926481F
:101A5000FFF734FE00B1FEE72348FFF72BFF00B18C
:101A6000FEE7129412A920481394FFF7CFFD00B1AE
:101A7000FEE76020CDE900040294039404940594E9
:101A80000022694618480694FFF7ACFE00B1FEE755
:101A9000042269461448FFF7A5FE00B1FEE70822BC
:101AA00069461148FFF79EFE00B1FEE70C22694629
:101AB0000D48FFF797FE00B1FEE7079408940994DC
:101AC0004FF400500A94CDE90B4007A906480D9445
:101AD000FFF76FFD00B1FEE70348FFF769FE14B0A2
:101AE00010BD00000000014080000020FEE77047AC
:101AF0000907090E002806DA00F00F0000F1E020C7
:101B000080F8141D704700F1E02080F80014704741
:101B10007047000010B500F02BFA184818496422ED
:101B200083784BB18368B3FBF2F402FB1433C3F147
:101B30006403C3610C686363C3783BB18368B3FB20
:101B4000F2F402FB143303620C68A36303784BB115
:101B50008368B3FBF2F402FB1432C3689A1A426240
:101B60000B68DA634078002806D00A6800205063CA
:101B70000A6890630968C86310BD00000000002077
:101B800080000020704710B5FFF7CEF9BDE8104087
:101B9000FFF70BBD10B51F4892B00024016841F05B
:101BA00080510160006800F0805011901A4801686F
:101BB00041F4404101600068069400F440401190F7
:101BC0000220009001200390102004906846FFF747
:101BD0003DFB00B1FEE70F20CDE90C040E940F94FD
:101BE00000210CA81094FFF761FA00B1FEE7FFF79F
:101BF000F5FA4FF47A71B0FBF1F0FFF7C2FC042064
:101C0000FFF7B2FC00221146501EFFF71DFA12B07A
:101C100010BD0000403802400070004010480168CC
:101C200041F4700101600F48016841F00101016059
:101C30000C4A00210832116002680B4B1A40026006
:101C4000031D0A4A1A60026822F4802202600548D5
:101C50000C30016002495806803908607047000066
:101C600088ED00E000380240FFFFF6FE103000244F
:101C7000F0B502681B4B1C4C9F031C4D1C4E984238
:101C800007D0B84205D0A04203D0A84201D0B0424C
:101C900004D122F0700C4A6842EA0C02984210D03B
:101CA000B8420ED0A0420CD0A8420AD0B04208D010
:101CB000104CA04205D0104CA04202D00F4CA042C4
:101CC00003D122F44074CA68224302608A68C26267
:101CD0000A688262984201D1096901630121416168
:101CE000F0BD00000000014000040040000800407A
:101CF000000C004000400140004401400048014009
:101D000010B50123046A8B409C430462036A8A4035
:101D10001343036210BD10B5846842EA032224F421
:101D20007F440A432243826010BD826822F0700221
:101D30000A4342F0070181607047000030B5026A33
:101D400022F001020262026A4368846924F073058A
:101D50000C682C4322F002058A682A430A4DA842E7
:101D60000BD122F00805CA6823F440732A434D6959
:101D700022F004021D438B692B4343608461496850
:101D80004163026230BD00000000014030B5026ACC
:101D900022F010020262026A436884690D6824F42A
:101DA000E64444EA05248D6822F0200242EA051246
:101DB0000B4DA8420ED1CD6822F0800242EA0512F6
:101DC0004D6923F4406343EA85038D6922F04002A4
:101DD00043EA85034360846149688163026230BDE0
:101DE0000000014030B5026A22F480720262036A88
:101DF0004268C46923F4007324F073050C682C4313
:101E00008D6843EA05230C4DA8420ED1CD6823F41A
:101E1000006343EA05234D6922F4405242EA051269
:101E20008D6923F4806342EA05124260C461496807
:101E3000C163036230BD00000000014030B5026A9A
:101E400022F480520262046A4268C3690D6823F476
:101E5000E64343EA05238D6824F4005444EA05343C
:101E6000064DA84204D14D6922F4804242EA85120F
:101E70004260C36149680164046230BD00000140F2
:101E800010B5036A046A24F001040462846924F032
:101E9000F00444EA021423F00A020A438461026255
:101EA00010BD10B5036A23F0100303628369046A4E
:101EB00023F4704343EA023224F0A00343EA011101
:101EC0008261016210BDFEE7FEE702E008C8121F52
:101ED00008C1002AFAD170477047002001E001C113
:101EE000121F002AFBD170470349096808B1034853
:101EF0004068086470470000800000200000002057
:101F000008B5FFF719F8FFF745FEFFF74BFD164838
:101F1000016841F4800101600068002200F4800043
:101F2000009011463820FFF78FF83820FFF780F82F
:101F3000FFF778FDFFF7F4FC00210C48FFF7D6FC13
:101F400004210A48FFF7D2FC08210848FFF7CEFC1D
:101F50000C210648FFF7CAFC044904223C31A1F1D8
:101F60008400FEF70DFDFEE73038024080000020BF
:101F700030B50E4800210E4AC17081704170017069
:101F800014684FF4487301219C4200D20170156817
:101F90004FF49664A54200D9417055689D4200D225
:101FA000C1705268A24200D9817030BD000000208B
:101FB000BC000020000610160006101600000000ED
:101FC000000000000102030406070809EC1F0008D6
:101FD0000000002038000000CA1E0008242000086D
:101FE00038000020F8040000DA1E0008000000009D
:101FF00000000000000000000000000000000000E1
:1020000000000000000000000000000000000000D0
:1020100000000000010000001000000000000000AF
:042020000024F400A4
:040000050800019955
:00000001FF
